:020000040800F2
:1000000000800120A9020008B1020008B502000822
:10001000FD02000801030008490300080000000079
:10002000000000000000000000000000911E000819
:100030009503000800000000311F0008AD1B0008F8
:10004000E9140008E9140008E9140008E91400089C
:10005000E9140008E9140008E9140008E91400088C
:10006000E9140008E9140008E9140008E91400087C
:10007000E9140008E9140008E9140008E91400086C
:10008000E9140008E9140008E91400080000000061
:10009000000000000000000000000000E91400085B
:1000A000E9140008E9140008E9140008E91400083C
:1000B000E9140008E9140008E9140008E91400082C
:1000C000E9140008E9140008E9140008E91400081C
:1000D000E9140008E9140008E91400080000000011
:1000E000E9140008E9140008E91400080000000001
:1000F000000000000000000000000000E9140008FB
:1001000000000000E9140008E9140008E9140008E0
:1001100000000000000000000000000000000000DF
:10012000E9140008E9140008E9140008E9140008BB
:10013000E9140008000000000000000000000000BA
:10014000000000000000000000000000E9140008AA
:10015000E9140008E9140008E9140008E91400088B
:10016000E9140008E9140008000000000000000085
:10017000000000000000000000000000000000007F
:1001800000000000E914000800000000000000006A
:10019000E914000800B583B001F018F9304B314A7A
:1001A0001360314A1360314B314A03E01168196022
:1001B000043304322F498B42F8D32A4B1A682E4B52
:1001C0009A4204D1284B1A682C4B9A4200D0FEE781
:1001D000234B2B4A13602B4A13602B4B02E0002267
:1001E0001A600433294A9342F9D3254B1B6813B98B
:1001F000244B1B6803B1FEE701F0FAF801A8694639
:1002000001F0BEF8224B234DED1AAD10002404E09E
:100210001F4B53F8243098470134A542F8DC1E4B9D
:100220001E4DED1AAD10002404E01B4B53F8243092
:1002300098470134A542F8DC0198009901F022FCAE
:100240000546174B174CE41AA41004E0013C144B6C
:1002500053F824309847002CF8DC284601F06CF85D
:10026000BABADECA0000002078000020000000209A
:10027000403E00087C0000207856341232547698B4
:100280007C000020B03E00207C000020B43E002016
:10029000D4030008D4030008D4030008D4030008E2
:1002A000D4030008D403000808B5FFF773FF00BFAC
:1002B00000BEFEE71EF0040F0CBFEFF30880EFF363
:1002C00009807146364A10472DE9F04182B0074651
:1002D0008846084C666BA56BA46A074801F058F87D
:1002E000CDF800803846214632462B4601F084F88E
:1002F00000BEFEE700ED00E0003C000800BEFEE7A7
:100300001EF0040F0CBFEFF30880EFF30980714675
:10031000244A10472DE9F04182B007468846084C30
:10032000666BA56BA46A074801F032F8CDF800802F
:100330003846214632462B4601F05EF800BEFEE705
:1003400000ED00E0103C00081EF0040F0CBFEFF3BE
:100350000880EFF309807146134A10472DE9F041F8
:1003600082B007468846084C666BA56BA46A0748AE
:1003700001F00EF8CDF800803846214632462B4673
:1003800001F03AF800BEFEE700ED00E01C3C00087A
:1003900000BEFEE700BEFEE700BEFEE770470000BD
:0C03A000C9020008150300085D030008F6
:1003AC00403E0008000000207C000020403E000879
:1003BC0000000010000000107C000020B43E002063
:0803CC00000000100000001009
:1003E00010B50446074B1868074BA3FB0020800993
:1003F00000F078F84FF0FF302146002200F040F87E
:10040000002010BD0C000020D34D621008B50B4B2E
:100410001A6842F400721A601A6842F480621A6024
:100420001A6842F480721A60032000F017F80F2057
:10043000FFF7D6FF01F062FB002008BD003C024040
:10044000024B1A6801321A60704700BF643E0020F8
:10045000014B1868704700BF643E002000F00700A1
:10046000064AD36823F4E0631B041B0C43EA002311
:1004700043F0BF6343F40033D360704700ED00E006
:1004800030B4164BDB68C3F30223C3F10705042D18
:1004900028BF04251C1D062C01D9033B00E00023C6
:1004A000012404FA05F5013D2940994004FA03F3BB
:1004B000013B1A400A43002806DA00F00F0012013F
:1004C000D2B2074B1A5407E01201D2B200F16040D9
:1004D00000F5614080F8002330BC704700ED00E07B
:1004E00014ED00E00138B0F1807F0AD2064B58606D
:1004F000F021064A82F823100020986007221A6033
:1005000070470120704700BF10E000E000ED00E000
:10051000042805D1054B1A6842F004021A6070479E
:10052000024B1A6822F004021A60704710E000E0E3
:100530002DE9F00183B00023C5E01E4601229A4058
:100540000C681440944240F0BD804D68022D01D0EB
:10055000122D14D1DD08083550F8257003F0070C72
:100560004FEA8C0C4FF00F0808FA0CF827EA08083D
:100570000F6907FA0CF747EA080740F82570076883
:100580005D004FF0030C0CFA05FC6FEA0C0C0CEA52
:1005900007084F6807F00307AF4047EA08070760FE
:1005A0004F6807F1FF38B8F1010F03D9112F01D0BF
:1005B000122F11D187680CEA0708CF68AF4047EACD
:1005C00008078760476827EA02024F68C7F30017E9
:1005D00007FA06F632434260C2680CEA020C8A68E7
:1005E000AA4042EA0C02C2604A6812F0805F69D0F9
:1005F00000220192374A556C45F480455564526C8F
:1006000002F480420192019A9A08961C324D55F8E4
:10061000267003F00305AD000F26AE4027EA06065C
:100620002E4FB84219D007F58067B84213D007F5AE
:100630008067B8420DD007F58067B84207D007F54C
:100640008067B84201D1042708E0072706E00327A6
:1006500004E0022702E0012700E0002707FA05F581
:10066000354302321C4E46F822501D4A1568E243BB
:1006700002EA05064F6817F4803F01D044EA0506F8
:10068000174D2E606D6802EA05064F6817F4003FAB
:1006900001D044EA0506124D6E60AD6802EA050617
:1006A0004F6817F4801F01D044EA05060C4DAE6078
:1006B000ED682A404E6816F4001F01D044EA050296
:1006C000074CE26001330F2B7FF637AF03B0BDE874
:1006D000F00170470038024000380140000002403D
:1006E000003C01400AB18161704709048161704793
:1006F00030B583B00446036813F0010F5AD09F4B06
:100700009B6803F00C03042B0AD09C4B9B6803F0FE
:100710000C03082B0DD1994B5B6813F4800F08D0A4
:10072000964B1B6813F4003F44D06368002B41D103
:100730009EE16368B3F5803F05D1904B1A6842F49F
:1007400080321A6015E0B3F5A02F09D18B4B1A68DF
:1007500042F480221A601A6842F480321A6008E07B
:10076000864B1A6822F480321A601A6822F48022BA
:100770001A6063687BB1FFF76BFE054605E0FFF783
:1007800067FE401B642800F275817C4B1B6813F4E4
:10079000003FF4D00EE0FFF75BFE054605E0FFF7F3
:1007A00057FE401B642800F26781744B1B6813F4EA
:1007B000003FF4D1236813F0020F5AD06F4B9B68AF
:1007C00013F00C0F0AD06D4B9B6803F00C03082B41
:1007D0001BD16A4B5B6813F4800F16D1674B1B6803
:1007E00013F0020F03D0E368012B40F04781634B05
:1007F000196821F0F8012269F82090FAA0F0B0FA07
:1008000080F082400A431A6033E0E368FBB10122C2
:100810005B4B1A60FFF71CFE054605E0FFF718FE6C
:10082000401B022800F22C81544B1B6813F0020F6E
:10083000F4D0524B196821F0F8012269F82090FA9F
:10084000A0F0B0FA80F082400A431A6011E0002262
:100850004B4B1A60FFF7FCFD054605E0FFF7F8FD7E
:10086000401B022800F20E81444B1B6813F0020F5C
:10087000F4D1236813F0080F26D0636993B10122E5
:10088000404B1A60FFF7E4FD054605E0FFF7E0FD89
:10089000401B022800F2F880384B5B6F13F0020F08
:1008A000F4D011E00022374B1A60FFF7D1FD054666
:1008B00005E0FFF7CDFD401B022800F2E7802F4B3B
:1008C0005B6F13F0020FF4D1236813F0040F69D0AB
:1008D00000230193294B1A6C42F080521A641B6C5E
:1008E00003F080530193019B274B1A6842F48072F6
:1008F0001A60FFF7ADFD054605E0FFF7A9FD401BB7
:10090000022800F2C580204B1B6813F4807FF4D0CE
:10091000A368012B05D1194B1A6F42F001021A6727
:1009200014E0052B09D1154B1A6F42F004021A6727
:100930001A6F42F001021A6708E0104B1A6F22F09A
:1009400001021A671A6F22F004021A67A3688BB1BA
:10095000FFF77EFD054607E0FFF77AFD401B41F2F9
:100960008833984200F29680044B1B6F13F0020FFD
:10097000F2D017E0FFF76CFD05460EE000380240AC
:1009800000004742800E474200700040FFF760FDC4
:10099000401B41F2883398427ED8464B1B6F13F0C0
:1009A000020FF3D1A369002B78D0424A926802F07B
:1009B0000C02082A74D0022B47D100223E4B1A6049
:1009C000FFF746FD054604E0FFF742FD401B022805
:1009D00068D8384B1B6813F0007FF5D1E269236AB1
:1009E0001A43636A47F6C07191FAA1F1B1FA81F135
:1009F0008B401A43A36A5B08591E4FF4403393FAA5
:100A0000A3F3B3FA83F301FA03F31A43E16A4FF055
:100A1000706393FAA3F3B3FA83F301FA03F31A436F
:100A2000244B5A600122244B1A60FFF711FD044643
:100A300004E0FFF70DFD001B022835D81D4B1B6895
:100A400013F0007FF5D0002031E000221A4B1A602D
:100A5000FFF7FEFC044604E0FFF7FAFC001B022847
:100A600024D8144B1B6813F0007FF5D100201EE042
:100A700001201CE003201AE0032018E0012016E00A
:100A8000032014E0032012E0032010E003200EE016
:100A900003200CE003200AE0032008E0002006E029
:100AA000012004E0032002E0032000E0032003B063
:100AB00030BD00BF0038024060004742224B9B68B7
:100AC00003F00C03042B3DD0082B01D01F487047C6
:100AD0001D4B586800F03F005B6813F4800F10D086
:100AE0001B4BB3FBF0F0184B5A6847F6C0731A4023
:100AF00093FAA3F3B3FA83F322FA03F303FB00F0B0
:100B00000FE0124BB3FBF0F00F4B5A6847F6C0737F
:100B10001A4093FAA3F3B3FA83F322FA03F303FB25
:100B200000F0094B5A6802F440324FF4403393FA14
:100B3000A3F3B3FA83F322FA03F301335B00B0FBB0
:100B4000F3F0704702487047003802400024F40078
:100B500000127A0070B504460D46664B1B6803F020
:100B60000F038B4208D2CAB2624B1A701B6803F0A3
:100B70000F038B4240F0AC80236813F0020F06D0C5
:100B80005D4B996821F0F001A2680A439A602368DE
:100B900013F0010F60D06368012B05D1564A12682B
:100BA00012F4003F0FD195E09A1E012A05D8524A4F
:100BB000126812F0007F06D18EE04F4A126812F0E0
:100BC000020F00F08B804C4A916821F003010B4327
:100BD0009360FFF73DFC06466368012B0ED106E0EB
:100BE000FFF736FC801B41F28833984278D8424B9D
:100BF0009B6803F00C03042BF2D12DE0022B0ED1E5
:100C000006E0FFF725FC801B41F28833984269D843
:100C1000394B9B6803F00C03082BF2D11CE0032B2B
:100C200015D106E0FFF714FC801B41F2883398428F
:100C30005AD8314B9B6803F00C030C2BF2D10BE01C
:100C4000FFF706FC801B41F2883398424ED82A4BAE
:100C50009B6813F00C0FF3D1264B1B6803F00F03B6
:100C6000AB4207D9EAB2234B1A701B6803F00F039B
:100C7000AB423DD1236813F0040F06D01E4B996898
:100C800021F4E051E2680A439A60236813F0080FE8
:100C900007D0194B9A6822F46042216942EAC102E6
:100CA0009A60FFF70BFF144B9A6802F0F002F023F2
:100CB00093FAA3F3B3FA83F322FA03F30F4AD35C54
:100CC000D8400F4B18600F20FFF78AFB002070BD43
:100CD000012070BD012070BD012070BD012070BDDC
:100CE000032070BD032070BD032070BD032070BDC4
:100CF000012070BD003C0240003802402C3C00083E
:100D00000C000020014B1868704700BF0C00002049
:100D100008B5FFF7F7FF084B9A6802F4E0524FF46A
:100D2000E05393FAA3F3B3FA83F322FA03F3034AEB
:100D3000D35CD84008BD00BF003802403C3C0008EE
:100D400008B5FFF7DFFF084B9A6802F460424FF4E2
:100D5000604393FAA3F3B3FA83F322FA03F3034A4B
:100D6000D35CD84008BD00BF003802403C3C0008BE
:100D70002DE9F84304460368196921F44051C2681B
:100D80000A431A610268D36823F4164323F00C0364
:100D900080682169084361690843E16901430B43A5
:100DA000D3602368596921F44071A2690A435A61EA
:100DB000E369B3F5004F40F0BD80266803F180433E
:100DC00003F510439E4203D003F580639E4258D141
:100DD000FFF7B6FF00EB800000EB800063685B006C
:100DE000B0FBF3F9B04DA5FB09294FEA59194FEAB9
:100DF0000919FFF7A5FF00EB800000EB8000636896
:100E00005B00B0FBF3F8FFF79BFF00EB800000EB0B
:100E1000800063685B00B0FBF3F3A5FB03235B0971
:100E2000642707FB13884FEAC80808F13208A5FBBE
:100E300008384FEA181808F4F878C844FFF780FF1C
:100E400000EB800000EB800063685B00B0FBF3F90F
:100E5000FFF776FF00EB800000EB800063685B002B
:100E6000B0FBF3F3A5FB03235B0907FB1397FF001C
:100E70003237A5FB0735C5F342154544B560BDE8DB
:100E8000F883FFF745FF00EB800000EB800063680C
:100E90005B00B0FBF3F9844DA5FB09294FEA591912
:100EA0004FEA0919FFF734FF00EB800000EB8000E8
:100EB00063685B00B0FBF3F8FFF72AFF00EB8000EC
:100EC00000EB800063685B00B0FBF3F3A5FB03233A
:100ED0005B09642707FB13884FEAC80808F132084A
:100EE000A5FB08384FEA181808F4F878C844FFF74B
:100EF0000FFF00EB800000EB800063685B00B0FB3D
:100F0000F3F9FFF705FF00EB800000EB800063685A
:100F10005B00B0FBF3F3A5FB03235B0907FB13970F
:100F2000FF003237A5FB0735C5F342154544B560D0
:100F3000BDE8F88326685D4B9E4203D003F58063CD
:100F40009E4258D1FFF7FCFE00EB800000EB8000D2
:100F500063689B00B0FBF3F9534DA5FB09294FEAE9
:100F600059194FEA0919FFF7EBFE00EB800000EB7F
:100F7000800063689B00B0FBF3F8FFF7E1FE00EB35
:100F8000800000EB800063689B00B0FBF3F3A5FBDF
:100F900003235B09642707FB13884FEA081808F14D
:100FA0003208A5FB08384FEA581808F0F008C84482
:100FB000FFF7C6FE00EB800000EB800063689B003B
:100FC000B0FBF3F9FFF7BCFE00EB800000EB800004
:100FD00063689B00B0FBF3F3A5FB03235B0907FBEE
:100FE00013973F013237A5FB0735C5F34315454439
:100FF000B560BDE8F883FFF78BFE00EB800000EBE7
:10100000800063689B00B0FBF3F9274DA5FB09291D
:101010004FEA59194FEA0919FFF77AFE00EB8000F1
:1010200000EB800063689B00B0FBF3F8FFF770FEF5
:1010300000EB800000EB800063689B00B0FBF3F0E6
:10104000A5FB00304009642707FB10884FEA081809
:1010500008F13208A5FB08284FEA581808F0F008F4
:10106000C844FFF755FE00EB800000EB800063688A
:101070009B00B0FBF3F9FFF74BFE00EB800000EBA9
:10108000800063689B00B0FBF3F0A5FB00304009D3
:1010900007FB10973F013237A5FB0725C5F3431522
:1010A0004544B560BDE8F8831F85EB510010014051
:1010B0002DE9F04106460C4617469846069D1EE06F
:1010C000B5F1FF3F1BD02DB1FFF7C2F9C8EB00000F
:1010D000A84214D93368DA6822F4D072DA6033682F
:1010E0005A6922F001025A61202386F8393086F8C5
:1010F0003A30002386F838300320BDE8F0813168AB
:1011000009682140A14214BF00210121B942D7D072
:101110000020BDE8F08100BF10B5044658B390F838
:10112000393013F0FF0F04D1002380F8383000F07D
:1011300015FD242384F839302368DA6822F400523C
:10114000DA602046FFF714FE23681A6922F4904201
:101150001A6123685A6922F02A025A612368DA6800
:1011600042F40052DA600020E063202384F8393032
:1011700084F83A3010BD012010BD00BF2DE9F041C8
:1011800082B004460D4617461E4690F83910C9B283
:10119000202950D1002D50D0002A50D090F838305E
:1011A000012B4ED0012380F838300023C363212364
:1011B00080F83930FFF74CF98046A784E78427E0B0
:1011C000E38C013B9BB2E384A268B2F5805F13D14C
:1011D00000962046802100224346FFF769FF002841
:1011E00031D123682A88C2F308025A6023690BB9F7
:1011F00002350DE001350BE00096204680210022EB
:101200004346FFF755FF00BB23682A785A60013533
:10121000E28C92B2002AD3D1009620464021434668
:10122000FFF746FF034690B9202284F839200022B8
:1012300084F838200CE002230AE0012308E00123AF
:1012400006E0022304E0032302E0032300E003237B
:10125000184602B0BDE8F0812DE9F04182B00446A5
:101260000D4617461E4690F83A10C9B2202955D1AE
:10127000002D55D0002A55D090F83830012B53D08E
:10128000012380F838300023C363222380F83A30EA
:10129000FFF7DEF88046A785E78534E0E38D013B64
:1012A0009BB2E385A268B2F5805F17D10096204615
:1012B000202100224346FFF7FBFE002836D1236998
:1012C00033B923685B68C3F3080325F8023B1AE0CF
:1012D00023685B68DBB225F8013B14E000962046EA
:1012E000202100224346FFF7E3FE08BB236923B910
:1012F00023685B682B70013505E023685B6803F0A9
:101300007F032B700135E28D92B2002AC6D12023D3
:1013100084F83A30002084F838000AE0022008E01F
:10132000012006E0012004E0022002E0032000E0AA
:10133000032002B0BDE8F081FEE700BF08B50D4B09
:101340001B6813B90C4A0B4B1A600A4B1B6803301D
:1013500020F003001844094A904206D901F020FF0A
:101360000C2303604FF0FF3008BD024A106018469E
:1013700008BD00BF80000020B43E0020007C01209A
:1013800001230360014B0B60704700BF0400002085
:101390000FB400B583B004AB53F8042B0193084895
:1013A000802101F049FF011E03DD054800F00AF825
:1013B0000146084603B05DF804EB04B0704700BF77
:1013C000880000204FF0FF30704700BF08B500F0E4
:1013D0008DF8054B054A9A60D3F8882042F47002D4
:1013E000C3F8882008BD00BF00ED00E00000000841
:1013F00008B500F0A1F808BDF8B504460D4617463B
:101400001E462648FFF7C4FF25482168FFF7C0FFA6
:1014100024486168FFF7BCFF2348A168FFF7B8FFC5
:101420002248E168FFF7B4FF21482169FFF7B0FFC8
:1014300020486169FFF7ACFF1F48A169FFF7A8FFCB
:101440001E48E169FFF7A4FF1D48FFF7A1FF1D48F3
:101450002946FFF79DFF1C4CE16A1C48FFF798FFE7
:10146000216B1B48FFF794FFE16B1A48FFF790FFD1
:1014700015F0800F03D018483946FFF789FF15F49F
:10148000004F03D015483146FFF782FF1448FFF79D
:101490007FFF14480699FFF77BFFF8BDE43A000888
:1014A000F43A0008043B0008143B0008243B000801
:1014B000343B0008443B0008543B0008643B0008F0
:1014C000743B0008803B000800ED00E0903B000802
:1014D000A03B0008B03B0008C03B0008D03B000820
:1014E000E03B0008E83B0008FFF7FEBF0F4AD2F8D8
:1014F000883043F47003C2F888300D4B196841F00E
:101500000101196000209860196821F0847121F4AC
:101510008031196007495960196821F480211960E8
:10152000D8604FF000639360704700BF00ED00E0AB
:101530000038024010300024224B9B6803F00C035B
:10154000042B07D0082B09D0002B2DD11E4A1F4B8E
:101550001A602CE01E4A1D4B1A6028E0194B59688E
:101560005B6803F03F0311F4800F09D0184AB2FB07
:10157000F3F3144A5268C2F3881202FB03F208E044
:10158000114AB2FBF3F30F4A5268C2F3881202FB0E
:1015900003F20C4B5B68C3F3014301335B00B2FB06
:1015A000F3F20A4B1A6002E0074A084B1A60054B37
:1015B0009B68C3F30313074AD15C044B1A68CA4003
:1015C0001A607047003802400024F4000C0000202C
:1015D00040787D012C3C000830B58BB0002401948C
:1015E000214B1A6B42F004021A631A6B02F00402D8
:1015F0000192019A02941A6B42F080021A631A6BEC
:1016000002F080020292029A03941A6B42F00102E5
:101610001A631A6B02F001020392039A04941A6B84
:1016200042F002021A631B6B03F002030493049B53
:101630000E4D224620212846FFF754F84FF4005360
:1016400005930B4B0693079405A90A48FEF770FF14
:1016500020230593012306930794089405A928469F
:10166000FEF766FF0BB030BD0038024000000240BC
:10167000000021100008024000B583B002A941F823
:10168000040D002364220D48006800F089FE60B15B
:1016900000231A4619460A48006800F081FE38B156
:1016A000642001F047FB002004E04FF0FF3001E030
:1016B0006FF0010003B05DF804FB00BF0C010020D7
:1016C0000801002010B5064C204601F082FD4FF0C5
:1016D000FF3382B221460348FFF750FD10BD00BF23
:1016E000443C0008703E002038B50C4D284601F0FF
:1016F00070FD0B4C4FF0FF3382B229462046FFF7B6
:101700003DFD084D284601F064FD4FF0FF3382B2E5
:1017100029462046FFF732FD38BD00BF483C00088F
:10172000703E0020503C000810B5044601F051FD09
:101730004FF0FF3382B221460148FFF71FFD10BD75
:10174000703E002008B5FFF7CFFF0A48FFF7ECFF17
:10175000FFF7B8FF0848FFF7E7FFFFF7B3FF0748B9
:10176000FFF7E2FFFFF7AEFFFFF7ACFF0448FFF71C
:10177000DBFF08BD583C00087C3C0008983C000892
:10178000AC3C000808B54FF0FF330A46014602485A
:10179000FFF762FD08BD00BF703E002000B583B0BA
:1017A00000238DF8043000234FF4FA7219461848CC
:1017B000006800F0D5FE0028F5D0FFF795FFFFF791
:1017C000C1FF012101A8FFF7DDFF01A8FFF7ACFF72
:1017D0009DF90430302B08D10120FFF74DFF002880
:1017E000E1D00C48FFF7A0FFDDE7312B08D1022044
:1017F000FFF742FF0028D6D00748FFF795FFD2E752
:1018000000231A4619460248006800F0C9FDCAE7DD
:1018100008010020C03C0008E83C000810B59EB05C
:1018200000248DF874406422214604A801F0C9FC0C
:10183000039400234FF4FA7219464848006800F0F8
:101840008FFE0028F5D0FFF74FFF0023642203A985
:101850004348006800F084FE039B012B3ED1002426
:10186000029401F0FDF802900A2301221DA93D48CF
:10187000FFF7F2FC58B99DF974201EAB234403F81E
:10188000682C01341DA8FFF74FFFFFF71BFF9DF9E0
:1018900074302D2B1CD1631E1EAA1344002403F8A0
:1018A000684CFFF70FFF3048FFF73EFF04A8FFF733
:1018B0003BFF2E48FFF738FFFFF704FF2C48FFF7E8
:1018C00033FF012101A8FFF75DFF8DF874403DE073
:1018D0004FF47A7102A801F0D7F9C2E7022B32D196
:1018E0002448FFF721FFFFF7EDFE6422002104A842
:1018F00001F067FC002401211DA8FFF743FF1DA88C
:10190000FFF712FFFFF7DEFE9DF974302D2B14D187
:10191000FFF7D8FE1448FFF707FF04A8FFF704FFFE
:101920001248FFF701FFFFF7CDFE1148FFF7FCFE5D
:10193000012102A8FFF726FF08E01EAA224402F8B0
:10194000683C0134D7E70C48FFF7EEFE00231A4647
:1019500019460248006800F023FD6AE708010020EC
:101960000C010020703E00200C3D00081C3D0008CA
:10197000283D0008483D0008A43D0008FEE700BFE0
:1019800008B50B480B4B03604FF4E1334360002371
:101990008360C36003610C2242618361C361FFF70E
:1019A000BBFB20B140F2B3110348FFF7E7FF08BDCE
:1019B000703E002000440040D83D000800B595B0BE
:1019C000002201922B4B196C41F0805119641B6C61
:1019D00003F080530193019B029227490B6823F483
:1019E000404343F400430B600B6803F4404302930D
:1019F000029B0221089101230B9310230C930E915B
:101A00000F9210934FF4A87311930423129307239A
:101A1000139308A8FEF76CFE20B14FF4C471174869
:101A2000FFF7ACFF0F2303930221049100230593DA
:101A30004FF480520692079303A8FFF78BF820B16A
:101A40004FF4CB710D48FFF799FFFFF75BF90C4B93
:101A5000A3FB00308009FEF745FD0420FEF758FD8A
:101A600000220F214FF0FF30FEF70AFD15B05DF8A0
:101A700004FB00BF0038024000700040D83D000861
:101A8000D34D621000B583B0FEF7C0FCFFF796FFA0
:101A9000FFF7A2FDFFF774FFFFF726FE0024019475
:101AA0000223009323464FF480620E490E4800F053
:101AB0005FFF01940125009523464FF480620B4996
:101AC0000B4800F055FF284600F03EFD094B18601A
:101AD00022460421284600F03DFC074B186000F028
:101AE00079FFFEE7E83D00089D170008F43D000877
:101AF0001D180008080100200C01002008B5032073
:101B0000FEF7ACFC6FF00B0000210A46FEF7B8FCB4
:101B10006FF00A0000210A46FEF7B2FC6FF00900E0
:101B200000210A46FEF7ACFC6FF0040000210A46D3
:101B3000FEF7A6FC6FF0030000210A46FEF7A0FCAA
:101B40006FF001000F210022FEF79AFC4FF0FF30EA
:101B50000F210022FEF794FC08BD00BF00B587B03E
:101B600002680F4B9A4217D1002300930D4A116C63
:101B700041F400311164126C02F400320092009AB8
:101B80000C220192022202920393049307230593ED
:101B9000054801A9FEF7CCFC07B05DF804FB00BFC7
:101BA00000440040003802400000024008B5FEF743
:101BB00047FC00F091FA08BD124A12F0070F07D057
:101BC000D11D21F00701C1F5705313440A4601E00D
:101BD0004FF470530C480260002141601344083BED
:101BE00023F007030948036059601960991A51608E
:101BF0001360074B1960074B19604FF00042064B0A
:101C00001A607047200100201801002014010020F4
:101C1000243D002010010020203D0020134B00E057
:101C200013461A688242FBD310B45C6819198842C3
:101C300003D14168214459601846446801198A4219
:101C40000CD10B4909688A4206D05268224442608E
:101C50001A681268026002E0016000E002609842C7
:101C600000D018605DF8044B704700BF18010020D9
:101C70001401002070B5044600F0EAFE394B1B68E1
:101C80000BB9FFF799FF384B1B681C4253D194B135
:101C9000083414F0070F0ED024F00704083404F0C1
:101CA000070343B14FF0500383F31188BFF36F8FE5
:101CB000BFF34F8FFEE7002C3FD02C4B1B689C429C
:101CC0003DD82B4B1D6801E02B4615466A689442AF
:101CD00002D92A68002AF7D1224A1268954230D0E8
:101CE0001E6808362A681A606B681B1B102B10D9F7
:101CF000281910F0070F08D04FF0500383F3118814
:101D0000BFF36F8FBFF34F8FFEE743606C60FFF749
:101D100085FF6A6815490B689B1A0B6015490968AD
:101D20008B4201D213490B600F4B1B681A436A6048
:101D300000232B6006E0002604E0002602E00026D7
:101D400000E0002600F024FF16F0070F08D04FF047
:101D5000500383F31188BFF36F8FBFF34F8FFEE7FC
:101D6000304670BD14010020203D002010010020ED
:101D700018010020243D0020A0B338B50346A0F18F
:101D8000080550F8042C1849096812EA010408D122
:101D90004FF0500383F31188BFF36F8FBFF34F8F62
:101DA000FEE750F8080C40B14FF0500383F3118860
:101DB000BFF36F8FBFF34F8FFEE794B188B91C4616
:101DC00022EA010243F8042C00F042FE54F8043CDD
:101DD000064A11680B4413602846FFF71FFF00F006
:101DE000D7FE38BD704700BF203D00201001002005
:101DF0000B4B1B68B3F1FF3F08D04FF0500383F348
:101E00001188BFF36F8FBFF34F8FFEE74FF0500382
:101E100083F31188BFF36F8FBFF34F8FFEE700BFCF
:101E20001000002006480068006880F3088862B649
:101E300061B6BFF34F8FBFF36F8F00DF00BF0000AD
:101E400008ED00E0DFF80C00016841F4700101606A
:101E50007047000088ED00E04FF0807340F8043CCC
:101E600021F0010140F8081C054B40F80C3C40F8FB
:101E7000202C6FF0020340F8243C4438704700BF28
:101E8000F11D00080000000000000000000000003C
:101E9000074B19680868B0E8F04F80F30988BFF372
:101EA0006F8F4FF0000080F311887047AFF3008010
:101EB000F03D00204FF0500383F31188BFF36F8F84
:101EC000BFF34F8F0A4A136801331360012B0DD102
:101ED000084B1B6813F0FF0F08D04FF0500383F33B
:101EE0001188BFF36F8FBFF34F8FFEE7704700BFBE
:101EF0001000002004ED00E0094B1B6843B94FF0CF
:101F0000500383F31188BFF36F8FBFF34F8FFEE74A
:101F1000013B034A13600BB983F31188704700BF7C
:101F20001000002000000000000000000000000081
:101F3000EFF30980BFF36F8F154B1A681EF0100F77
:101F400008BF20ED108A20E9F04F10604DF8043DE5
:101F50004FF0500080F31188BFF34F8FBFF36F8FA6
:101F600000F04EFF4FF0000080F3118808BC1968A4
:101F70000868B0E8F04F1EF0100F08BFB0EC108AF0
:101F800080F30988BFF36F8F704700BFAFF3008005
:101F9000F03D002008B54FF0500383F31188BFF3E4
:101FA0006F8FBFF34F8F00F061FD18B14FF080527B
:101FB000024B1A60002383F3118808BD04ED00E092
:101FC000064B1B68064AA2FB03239B09013B054AFB
:101FD00013600722044B1A60704700BF0C000020FA
:101FE000D34D621014E000E010E000E0314B1A68BD
:101FF000314B9A4208D14FF0500383F31188BFF35D
:102000006F8FBFF34F8FFEE72A4B1A682B4B9A4214
:1020100008D14FF0500383F31188BFF36F8FBFF3E4
:102020004F8FFEE700B583B0254B1A78D2B20192EC
:10203000FF221A701B78DBB28DF803309DF8033055
:1020400003F050031F4A137007221F4B1A6009E068
:102050001D4A1368013B13609DF803305B00DBB23F
:102060008DF803309DF8033013F0800FF0D1164A3D
:1020700013681B0203F4E0631360019BDBB2104A98
:102080001370124B1A6842F470021A601A6842F018
:1020900070421A60FFF794FF00220D4B1A60FFF7A1
:1020A000D1FE0C4A136843F040431360FFF7BAFEB9
:1020B000FFF79EFE00ED00E071C20F4170C20F41BC
:1020C00000E400E0283D00202C3D002020ED00E051
:1020D0001000002034EF00E008B500F095FF012863
:1020E00001D0FFF757FF08BD00F1080343604FF030
:1020F000FF328260C360036100230360704700BF4A
:1021000000230361704700BF43684B609A688A6090
:102110009A685160996008610368013303607047F1
:1021200030B40D68B5F1FF3F01D1026907E000F15D
:10213000080200E01A4653681C68A542FAD25368A8
:102140004B6099608A6051600861036801330360E5
:1021500030BC704703694268816891608268416859
:1021600051605A68904201D182685A60002202612F
:10217000186801381860704710B50446FFF79AFEDA
:10218000A26BE36B9A4201D1012400E00024FFF727
:10219000B3FE204610BD00BF10B50446FFF78AFE0F
:1021A000A36B0BB9012400E00024FFF7A5FE204635
:1021B00010BD00BF70B504461646856B026C3AB977
:1021C000036843BB406800F083FF0023636029E09D
:1021D0006EB9806800F0EAFFA268236C1344A36024
:1021E0006268934219D32368A36000201AE0C06894
:1021F00000F0DCFF236C5B42E2681A44E260216875
:102200008A4202D262681344E360022E07D145B1CC
:10221000013D002006E0002004E0002002E0002054
:1022200000E000200135A56370BD00BF026C72B1F3
:1022300010B50346C4681444C4604068844201D3A6
:102240001868D8600846D96800F0B0FF10BD704724
:1022500038B50546FFF72EFE95F8454064B20AE012
:102260006B6A53B105F1240000F02CFE08B100F0B8
:10227000C5FE013C64B2002CF2DCFF2385F845303A
:10228000FFF73AFEFFF716FE95F8444064B20AE005
:102290002B6953B105F1100000F014FE08B100F0F5
:1022A000ADFE013C64B2002CF2DCFF2385F8443023
:1022B000FFF722FE38BD00BF38B540B94FF05003DC
:1022C00083F31188BFF36F8FBFF34F8FFEE7044690
:1022D0000D46FFF7EFFD2168E26B236C03FB021054
:1022E00060600020A063A160013A02FB0313E36079
:1022F000FF2384F8443084F845307DB92369ABB1BD
:1023000004F1100000F0DEFD80B14FF08052094B67
:102310001A60BFF34F8FBFF36F8F07E004F1100017
:10232000FFF7E2FE04F12400FFF7DEFEFFF7E4FD15
:10233000012038BD04ED00E010B5029B0C4609B940
:102340001B6000E01A60D8631C6401211846FFF787
:10235000B3FF10BD40B94FF0500383F31188BFF3B2
:102360006F8FBFF34F8FFEE7F0B583B0034611B117
:1023700001FB00F000E000201D4617460C464830E7
:10238000FFF778FC064638B100903B4600F1480262
:1023900021462846FFF7D0FF304603B0F0BD00BF0E
:1023A000F0B585B0019240B94FF0500383F3118826
:1023B000BFF36F8FBFF34F8FFEE7044619B9026C6E
:1023C0001AB9012202E0012200E0002242B94FF0D6
:1023D000500383F31188BFF36F8FBFF34F8FFEE776
:1023E000022B03D1E26B012A02D102E0012200E0BC
:1023F000002242B94FF0500383F31188BFF36F8F6F
:10240000BFF34F8FFEE71D460E4600F0FDFD18B9E5
:10241000019B1BB9012302E0012300E0002343B923
:102420004FF0500383F31188BFF36F8FBFF34F8FCB
:10243000FEE70027FFF73EFDA26BE36B9A4201D354
:10244000022D21D12A4631462046FFF7B3FE636AAA
:102450006BB104F1240000F035FD88B14FF08052DB
:10246000324B1A60BFF34F8FBFF36F8F08E038B164
:102470004FF080522D4B1A60BFF34F8FBFF36F8F19
:10248000FFF73AFD01204EE0019B1BB9FFF734FD39
:10249000002048E01FB902A800F05AFD0127FFF70D
:1024A0002BFD00F0D5FAFFF705FD94F844305BB240
:1024B000B3F1FF3F02D1002384F8443094F8453053
:1024C0005BB2B3F1FF3F02D1002384F84530FFF740
:1024D00013FD01A902A800F051FDF0B92046FFF755
:1024E0004BFEA0B1019904F1100000F0D3FC20468E
:1024F000FFF7AEFE00F04CFB00289BD14FF080525E
:102500000A4B1A60BFF34F8FBFF36F8F92E72046DD
:10251000FFF79EFE00F03CFB8CE72046FFF798FE9D
:1025200000F036FB002005B0F0BD00BF04ED00E078
:1025300048B108B5002141600160C1600B460A4600
:10254000FFF72EFF08BD704710B50246002101209D
:10255000FFF700FF0446FFF7EBFF204610BD00BF6A
:102560002DE9F04184B0019240B94FF0500383F35C
:102570001188BFF36F8FBFF34F8FFEE7044619B981
:10258000026C1AB9012202E0012200E0002242B9E5
:102590004FF0500383F31188BFF36F8FBFF34F8F5A
:1025A000FEE71F46884600F02FFD18B9019B1BB9B6
:1025B000012302E0012300E0002343B94FF0500360
:1025C00083F31188BFF36F8FBFF34F8FFEE70026B1
:1025D000FFF770FCA56B85B3E66841462046FFF720
:1025E00025FEB7B9013DA563236813B900F0CAFD04
:1025F00060602369EBB104F1100000F063FCC0B12E
:102600004FF080523D4B1A60BFF34F8FBFF36F8F77
:102610000FE0E660636A63B104F1240000F052FC4D
:1026200038B14FF08052354B1A60BFF34F8FBFF374
:102630006F8FFFF761FC01205DE0019B1BB9FFF785
:102640005BFC002057E01EB902A800F081FC0126C7
:10265000FFF752FC00F0FCF9FFF72CFC94F8443033
:102660005BB2B3F1FF3F02D1002384F8443094F809
:1026700045305BB2B3F1FF3F02D1002384F845300F
:10268000FFF73AFC01A902A800F078FC38BB20460D
:10269000FFF782FDE8B1236833B9FFF70BFC6068F0
:1026A00000F0C2FCFFF728FC019904F1240000F0BF
:1026B000F1FB2046FFF7CCFD00F06AFA002887D135
:1026C0004FF080520D4B1A60BFF34F8FBFF36F8FE7
:1026D0007EE72046FFF7BCFD00F05AFA78E7204677
:1026E000FFF7B6FD00F054FA2046FFF755FD00282D
:1026F0003FF46EAF002004B0BDE8F08104ED00E0CF
:102700000A4B1B681B680BB9012300E0002323B1AF
:102710004FF0FF32064B1A607047044B1B68DB68B2
:10272000DB685A68024B1A60704700BF343D0020D6
:10273000103E002010B50446006BFFF71DFB20463D
:10274000FFF71AFB10BD00BF2DE9F0478046994600
:10275000089D099F0A9C236B02F18042013A03EB1A
:10276000820626F00706002306E0C856E21882F823
:102770003400CA5612B101330F2BF6D9002384F866
:102780004330062D00D90625E56265644FF0000A46
:10279000C4F848A0201DFFF7B3FC04F11800FFF7B0
:1027A000AFFC2461C5F10705A5616462C4F84CA0C3
:1027B00084F850A04A4641463046FFF74DFB206062
:1027C00007B13C60BDE8F08738B5002407E004EBB2
:1027D000840293000E481844FFF786FC0134062C4F
:1027E000F5D90C4D2846FFF77FFC0B4C2046FFF730
:1027F0007BFC0A48FFF778FC0948FFF775FC09489D
:10280000FFF772FC084B1D60084B1C6038BD00BF11
:10281000583D0020183E00202C3E0020F43D0020B2
:102820003C3D0020403E0020343D0020503D002033
:1028300010B50446FFF73EFB204A136801331360CE
:102840001F4B1B683BB91E4B1C601368012B0DD13D
:10285000FFF7BAFF0AE01B4B1B683BB9184B1B681C
:10286000DA6AE36A9A4201D8154B1C60164A13686B
:1028700001331360E36A012202FA03F1134802688C
:102880000A43026003EB83039A00211D10481044A1
:10289000FFF73AFCFFF730FB0A4B1B686BB1084BA4
:1028A0001B68DA6AE36A9A4207D24FF08052094BFA
:1028B0001A60BFF34F8FBFF36F8F10BDEC3D002048
:1028C000F03D0020383D0020143E0020543E002002
:1028D000583D002004ED00E070B504460E461D4B47
:1028E0001D681D4B18680430FFF734FC50B91A4BB3
:1028F0001B68DA6A012303FA02F218490B6823EA1B
:1029000002030B60B4F1FF3F07D136B1124B1968D7
:1029100004311348FFF7F8FB70BD2C440E4B1B68C5
:102920005C60A54207D90F4B18680B4B196804313E
:10293000FFF7F6FB70BD0C4B1868074B19680431A4
:10294000FFF7EEFB094B1B689C4201D2074B1C6052
:1029500070BD00BF0C3E0020F03D0020543E002022
:10296000403E0020503D0020343D0020103E00201D
:102970002DE9F04385B006460F461546984690006F
:10298000FFF778F960B181465420FFF773F90446E8
:1029900010B1C0F8309004E04846FFF7EDF900E0D0
:1029A00000248CB10023039302940D9B01930C9B94
:1029B000009343462A4639463046FFF7C5FE204677
:1029C000FFF736FF012001E04FF0FF3005B0BDE812
:1029D000F08300BF00B583B0174B01930023009331
:1029E000802216491648FFF7C3FF012814D14FF083
:1029F000500383F31188BFF36F8FBFF34F8F4FF0F6
:102A0000FF32104B1A6001220F4B1A6000220F4B4D
:102A10001A60FFF7EBFA0BE0B0F1FF3F08D14FF07F
:102A2000500383F31188BFF36F8FBFF34F8FFEE71F
:102A300003B05DF804FB00BF083E0020043E000820
:102A4000D92D0008103E0020383D00200C3E00200B
:102A5000024A136801331360704700BFE43D002051
:102A6000014B1868704700BF0C3E0020F8B53D4B85
:102A70001B68002B69D13C4B1D6801351D60C5B931
:102A80003A4B1B681B6843B14FF0500383F3118826
:102A9000BFF36F8FBFF34F8FFEE7344A1168344B9B
:102AA000186810601960334A136801331360FFF728
:102AB00027FE314B1B689D4203D200243AE00124DB
:102AC00000E00024294B1B681B680BB9012300E0C0
:102AD000002323B14FF0FF32274B1A602AE0234B2B
:102AE0001B68DB68DE6873689D4202D2224A13606D
:102AF00020E0371D3846FFF72DFBB36A1BB106F106
:102B00001800FFF727FBF36A012202FA03F11B48C2
:102B100002680A43026003EB83039A0039461848AF
:102B20001044FFF7F1FAF26A164B1B68DB6A9A420F
:102B3000C5D2C7E7134B1B68DB6A03EB83039A001C
:102B40000F4B9B58012B06D806E00F4A1368013340
:102B50001360002400E001240C4B1B6803B1012426
:102B60002046F8BDE43D00200C3E0020343D00200E
:102B7000503D0020303D0020103E0020543E0020FB
:102B8000583D0020F03D0020543D0020583E0020DC
:102B900038B5344B1B6843B94FF0500383F31188A9
:102BA000BFF36F8FBFF34F8FFEE7FFF783F92D4B16
:102BB0001A68013A1A601B68002B4CD12A4B1B681B
:102BC00033BB00244AE0294BDB68DC6804F11800C1
:102BD000FFF7C0FA251D2846FFF7BCFAE36A012279
:102BE00002FA03F1224802680A43026003EB8303FE
:102BF0009A0029461F481044FFF786FAE26A1E4BE6
:102C00001B68DB6A9A4204D301221C4B1A6000E065
:102C10000024164B1B68002BD5D10CB1FFF770FDBB
:102C2000174B1C6854B1FFF721FF10B10122134B61
:102C30001A60013CF7D10022114B1A600F4B1B6840
:102C40005BB14FF080520F4B1A60BFF34F8FBFF351
:102C50006F8F012402E0002400E00024FFF74CF90C
:102C6000204638BDE43D0020EC3D0020F43D00202E
:102C7000543E0020583D0020F03D0020583E0020EA
:102C8000543D002004ED00E038B540B94FF050034A
:102C900083F31188BFF36F8FBFF34F8FFEE70546B5
:102CA00041B94FF0500383F31188BFF36F8FBFF327
:102CB0004F8FFEE71C4B1B6843B14FF0500383F36B
:102CC0001188BFF36F8FBFF34F8FFEE70C46FFF7FE
:102CD000BFFE164B18682A68A318904205D29A4284
:102CE00009D9984209D300220CE09A4207D89842A9
:102CF00007D3002206E0002204E0012202E00122C4
:102D000000E001222B601AB10021181AFFF7E4FD40
:102D1000FFF73EFF38B94FF08052054B1A60BFF302
:102D20004F8FBFF36F8F38BDE43D00200C3E002075
:102D300004ED00E010B5A8B10446104B1B6843B188
:102D40004FF0500383F31188BFF36F8FBFF34F8FA2
:102D5000FEE7FFF77DFE00212046FFF7BDFDFFF7F0
:102D600017FF00E0002038B94FF08052044B1A6082
:102D7000BFF34F8FBFF36F8F10BD00BFE43D002046
:102D800004ED00E010B51BE0FFF762FE0F4B1C687E
:102D9000FFF7FEFEA4B1FFF78DF80C4BDB68DC6893
:102DA000201DFFF7D7F90A4A1368013B1360094A4F
:102DB0001368013B1360FFF79FF82046FFF7BAFC4A
:102DC000044B1B68002BDFD110BD00BF3C3D002031
:102DD000EC3D0020E83D002008B5FFF7D3FF064B8F
:102DE0001B68012BF9D94FF08052044B1A60BFF3D6
:102DF0004F8FBFF36F8FF0E7583D002004ED00E0E8
:102E00001F4B1B681BB101221E4B1A60704700222A
:102E10001C4B1A601C4B1B68B3FA83F3DBB2C3F183
:102E20001F0303EB83018A0018498A5842B94FF007
:102E3000500383F31188BFF36F8FBFF34F8FFEE70B
:102E400030B4124D9900CA18900028444268546862
:102E5000446019448A0008322A44944205D16068CB
:102E600003EB83018A002A44506003EB83039A003A
:102E7000064B1A445368DA68054B1A6030BC704739
:102E8000E43D0020583E0020543E0020583D0020E4
:102E9000F03D002040B94FF0500383F31188BFF399
:102EA0006F8FBFF34F8FFEE710B50C46044B1968C8
:102EB0001831FFF735F901212046FFF70DFD10BD50
:102EC000F03D002038B5C368DC6844B94FF05003CA
:102ED00083F31188BFF36F8FBFF34F8FFEE704F1C9
:102EE00018052846FFF736F9134B1B68A3B9251DB3
:102EF0002846FFF72FF9E36A012202FA03F10F488F
:102F000002680A43026003EB83039A0029460C48D7
:102F10001044FFF7F9F803E029460A48FFF7F4F8F0
:102F2000E26A094B1B68DB6A9A4203D90120074B0E
:102F3000186038BD002038BDE43D0020543E00201C
:102F4000583D0020F43D0020F03D0020583E002078
:102F500040B94FF0500383F31188BFF36F8FBFF375
:102F60004F8FFEE7034A12680260034A126842600C
:102F7000704700BF303D00200C3E002038B540B9FE
:102F80004FF0500383F31188BFF36F8FBFF34F8F60
:102F9000FEE7044641B94FF0500383F31188BFF3B5
:102FA0006F8FBFF34F8FFEE70D46FEF783FF114B88
:102FB00019682A68B2F1FF3F13D020680E4B1B68D6
:102FC000984202D0636899420DD26368C81A82425F
:102FD0000BD95B1A13442B602046FFF7B9FF00247E
:102FE00004E0002402E0012400E00124FEF784FF55
:102FF000204638BD0C3E0020303D00200122014B10
:103000001A607047583E0020054B1B6823B1054BE2
:103010001B681BB9022070470120704700207047D1
:10302000383D0020E43D002000284AD038B5024653
:10303000C36A24490968C96A8B4241D2816900295F
:1030400005DB20490968C96AC1F10701816150693E
:1030500003EB830399001C4B1944884201D10123DF
:1030600000E0002343B31446151D2846FFF772F80D
:1030700070B9E36A03EB83018A0013498A583AB9AD
:10308000012202FA03F311490A6822EA03030B60E2
:103090000C4B1B68DB6AE362012202FA03F10B4866
:1030A00002680A43026003EB83039A00294606483C
:1030B0001044FFF729F838BD024B1B68DB6AD36266
:1030C00038BD7047F03D0020583D0020543E0020A0
:1030D00000284BD038B50346274A1268904208D0E2
:1030E0004FF0500383F31188BFF36F8FBFF34F8FFF
:1030F000FEE7826C42B94FF0500383F31188BFF3AF
:103100006F8FBFF34F8FFEE7013A8264C06A596C3C
:1031100088422DD072BB1C461D1D2846FFF71AF8A9
:1031200070B9E26A02EB82018B001449CB583BB9BB
:10313000012303FA02F212490B6823EA02030B602F
:10314000636CE362C3F10702A261012404FA03F095
:103150000B490A6802430A6003EB83039A0029467D
:1031600006481044FEF7D0FF204638BD00207047C7
:10317000002038BD002038BDF03D0020583D002023
:10318000543E0020054B1B6823B1044B1A68936C16
:1031900001339364014B1868704700BFF03D002075
:1031A000014B1868704700BF7400002010B5431E23
:1031B0000A44914204D011F8014B03F8014FF8E79B
:1031C00010BD02440346934202D003F8011BFAE704
:1031D0007047034613F8012B002AFBD1181A013857
:1031E000704730B5141E05469BB0184604DA8B2391
:1031F0002B604FF0FF301DE04FF40273ADF80C3040
:1032000014BF04F1FF332346029305934FF6FF7377
:1032100000910491ADF80E3002461E9B6946284687
:1032200000F072F8431CBCBF8B232B6014B1009BD1
:1032300000221A701BB030BD07B5009313460A4632
:10324000014603480068FFF7CCFF03B05DF804FBBC
:10325000740000202DE9F0478E689E4282460C469D
:10326000914698463ED88A8912F4906F3AD02568E4
:1032700009696F1A6569022305EB450595FBF3F5AE
:103280007B1C43449D4238BF1D4653050FD529463C
:1032900000F088FB064698B13A462169FFF786FFA1
:1032A000A38923F4906343F08003A38113E02A46AB
:1032B00000F0D6FB064670B92169504600F024FBA9
:1032C0000C23CAF80030A38943F04003A3814FF0D8
:1032D000FF30BDE8F087266165613E44ED1B266046
:1032E000A5604646464528BF4646324649462068C0
:1032F00000F0EEFAA3689B1BA36023681E442660BF
:103300000020BDE8F08700002DE9F04F9DB0804619
:1033100003938B891C060D4616460DD50B695BB9C8
:10332000402100F03FFB2860286118B90C23C8F841
:103330000030CDE040236B610023099320238DF8FA
:103340002930DFF89CB130238DF82A3037463C46CF
:1033500014F8013B1BB9B7EB060910D003E0252B8D
:10336000F9D02746F3E74B46324629464046FFF759
:1033700071FF013000F0A780099B4B4409933B7813
:10338000002B00F0A08000234FF0FF32049307933E
:10339000059206938DF853301A9301260522217861
:1033A0004E4800F045FA671C049B38B14B4A801A1E
:1033B00006FA00F0184304903C46EFE7D90644BFF4
:1033C00020228DF853201A0744BF2B228DF853205A
:1033D00022782A2A03D0079A00210A200BE0039AB8
:1033E000111D12680391002A10DA524243F00200C4
:1033F000079204900BE0274601343B78303B092BC1
:1034000003D800FB02320121F5E701B107923B78B6
:103410002E2B1ED17B782A2B0AD1039B1A1D1B68E9
:103420000392002BB8BF4FF0FF330237059310E033
:1034300000230593781C19460A24074601303A7880
:10344000303A092A03D804FB01210123F5E703B12F
:10345000059103223978224800F0EAF940B140236F
:10346000CBEB000003FA00F0049B184304900137F3
:1034700039781C488DF8281006227E1C00F0D8F9F7
:1034800088B1194B33B9039B073323F00703083383
:10349000039314E003AB00932A46144B04A940465F
:1034A000AFF3008007E003AB00932A460F4B04A95B
:1034B000404600F093F8B0F1FF3F824603D0099BED
:1034C0005344099342E7AB895B0601D4099801E0B4
:1034D0004FF0FF301DB0BDE8F08F00BF0C3E00087C
:1034E000123E0008163E0008000000005532000899
:1034F0002DE9F04791461F460A698B68DDF8208068
:103500009342B8BF1346C9F8003091F843200646ED
:103510000C4612B10133C9F800302368990642BF46
:10352000D9F800300233C9F80030256815F00605D7
:1035300010D104F1190A07E00123524639463046FA
:10354000C04701301AD00135E368D9F800209B1A32
:103550009D42F1DB94F843302268003318BF012309
:1035600092060FD5E1185A1C302081F843002244FE
:1035700094F8451082F84310023303E04FF0FF3017
:10358000BDE8F08704F1430239463046C0470130B8
:10359000F4D02268D9F80050E36802F00602042A49
:1035A00008BF5D1B2269A3680CBF25EAE5750025ED
:1035B0009342C4BF9B1AED184FF000091A344D45D1
:1035C00009D00123224639463046C0470130D5D0C4
:1035D00009F10109F3E70020BDE8F0872DE9F04388
:1035E00017460A7E85B06E2A984606460C460C9B06
:1035F00001F1430E00F0AE8011D8632A22D009D821
:10360000002A00F0BB80582A40F0CA8081F845208B
:10361000834955E0642A1ED0692A1CD0C0E0732A71
:1036200000F0B08009D86F2A2ED0702A40F0B88000
:103630000A6842F020020A603EE0752A24D0782A07
:103640003AD0ADE01A6801F14205111D1960136806
:1036500084F84230A8E021681A6811F0800F02D087
:10366000111D196008E011F0400F02F1040119600A
:1036700002D0B2F9003000E01368002B3CDA2D22B2
:103680005B4284F8432037E021681A6811F0800F0C
:1036900002D0111D196007E011F0400F02F1040182
:1036A000196001D0138800E01368227E5C496F2AFC
:1036B00014BF0A2208221BE078225A4984F84520C8
:1036C0002268186812F0800F00F104051D6003D114
:1036D000550601D5038800E00368D00744BF42F0D7
:1036E000200222601BB9226822F0200222601022F0
:1036F000002084F8430001E049490A226568A5607A
:10370000002D08DB206820F0040020602BB9002D7C
:103710007DD175460CE0002B79D07546B3FBF2F0F5
:1037200002FB1033CB5C05F8013D03460028F5D1C0
:10373000082A0BD12368DA0708D5236962689A4200
:10374000DEBF302305F8013C05F1FF35C5EB0E0364
:1037500023612EE008681A68496910F0800F03D0D1
:10376000101D1860136808E010F0400F02F104000B
:103770001860136801D0198000E0196000232361EC
:10378000754616E01A68111D1960156862680021F7
:10379000284600F04DF808B1401B6060636804E003
:1037A00004F1420584F8422001232361002384F8B8
:1037B0004330CDF800803B4603AA21463046FFF750
:1037C00097FE013002D14FF0FF3026E023692A46F0
:1037D00039463046C0470130F5D023689B0710D5E5
:1037E000002504F1190907E001234A46394630460D
:1037F000C0470130E7D00135E368039A9B1A9D4228
:10380000F2DBE068039B9842B8BF184605E00B78EE
:1038100084F8423004F142058AE705B0BDE8F08340
:103820001D3E00082E3E00080000000000000000C1
:1038300001F0FF01102A2BDB10F0070F08D010F861
:10384000013B013A8B422DD010F0070F42B3F6D165
:10385000F0B441EA012141EA014122F007047FF07E
:1038600000070023F0E80256083C85EA010586EAD5
:10387000010685FA47F5A3FA87F586FA47F6A5FA11
:1038800087F68EB9EED1F0BC01F0FF0102F007021D
:1038900032B110F8013B013A83EA010313B1F8D1C8
:1038A0000020704701387047002D06BF35460338A9
:1038B000073815F0010F07D1013015F4807F02BFE2
:1038C000013015F4C03F0130F0BC0138704700BF33
:1038D000884210B501EB020301D8421E0BE098426A
:1038E000FBD28118D21AD34204D013F8014D01F84B
:1038F000014DF8E710BD994204D011F8014B02F8D0
:10390000014FF8E710BD000038B50546002946D044
:1039100051F8043C0C1F002BB8BFE41800F0D6F897
:103920001F4A1368114613B96360146032E0A34262
:103930000ED92268A018834204BF18685B686360D0
:1039400004BF121822600C6024E0A24203D8134680
:103950005A68002AF9D118681918A1420BD12168B8
:10396000014458188242196014D1106852685A6094
:10397000014419600EE002D90C232B600AE0216893
:103980006018824204BF10685268626004BF091860
:1039900021605C602846BDE8384000F098B838BD2A
:1039A000603E002070B5CD1C25F0030508350C2DB8
:1039B00038BF0C25002D064601DBA94202D90C2395
:1039C000336046E000F082F8234B1C681A4621461B
:1039D000A1B10B685B1B0ED40B2B03D90B60CC1869
:1039E000CD501EE08C420DBF63684B68636013606E
:1039F00018BF0C4615E00C464968E9E7174C2368E8
:103A00001BB9304600F052F820602946304600F0DD
:103A10004DF8431C18D0C41C24F00304A0420DD15F
:103A20002560304600F053F804F10B00231D20F010
:103A30000700C31A0ED05A42E25070BD211A304618
:103A400000F034F80130EBD10C233360304600F045
:103A50003EF8002070BD00BF603E00205C3E0020AC
:103A6000F8B5074615460E4621B91146BDE8F8409F
:103A7000FFF798BF1AB9FFF747FF2846F8BD00F0D7
:103A800027F885420ED929463846FFF78BFF0446B2
:103A900050B131462A46FFF789FB31463846FFF7D9
:103AA00033FF01E03046F8BD2046F8BD38B5064C7E
:103AB0000023054608462360FDF740FC431C02D165
:103AC000236803B12B6038BD683E00207047704703
:103AD00051F8040C0028BEBF091851F8043CC01866
:103AE00004387047537461636B206672616D653A88
:103AF0000A000000205230203D2020253038580A8E
:103B000000000000205231203D2020253038580A86
:103B100000000000205232203D2020253038580A75
:103B200000000000205233203D2020253038580A64
:103B30000000000020523132203D20253038580A44
:103B400000000000204C52203D2020253038580A2B
:103B500000000000205043203D2020253038580A26
:103B60000000000020505352203D20253038580AD4
:103B7000000000004653522F4641523A0A0000000E
:103B80002043465352203D2020253038580A00005B
:103B90002048465352203D2020253038580A000046
:103BA0002044465352203D2020253038580A00003A
:103BB0002041465352203D2020253038580A00002D
:103BC000204D4D464152203D20253038580A0000F6
:103BD0002042464152203D2020253038580A00001E
:103BE0004D6973630A000000204C522F4558435F13
:103BF00052455455524E3D20253038580A00000099
:103C00005B486172644661756C745D0A0000000077
:103C10005B4275734661756C745D0A005B55736138
:103C200067654661756C745D0A0000000000000065
:103C3000000000000102030406070809000000005C
:103C4000010203040A0D00001B5B303B30480000FA
:103C50001B5B324A00000000456E746572206120D3
:103C60006E756D62657220746F2073656C65637428
:103C700020616E206F7074696F6E00003C303E20D2
:103C8000666F7220636F6E74696E756573207265FE
:103C90006164696E670000003C313E20666F7220EF
:103CA00073696E676C65207265616400456E74654A
:103CB0007220686572653A200000000025690000E6
:103CC0004661696C656420746F20656E746572204E
:103CD000636F6E74696E756F7573207265616420B1
:103CE0006D6F6465000000004661696C6564207456
:103CF0006F20656E7465722073696E676C652072E3
:103D0000656164206D6F646500000000596F752067
:103D1000656E746572656420270000002720696E57
:103D200020746F74616C2E00456E74657220616E34
:103D3000797468696E6720746F20636F6E74696E42
:103D400075652E2E2E000000596F7520656E746506
:103D50007265642073696E676C65207265616420AA
:103D60006D6F64652E20507265737320272D272098
:103D7000746F2073746F702073696E676C65207246
:103D8000656164206D6F646520616E642072657486
:103D900075726E20746F206D61696E206D656E7531
:103DA0002E000000526563656976656420696E7651
:103DB000616C6964206E756D6265722C2072657429
:103DC00075726E696E6720746F206D61696E206D0B
:103DD000656E752E2E2E00002E2E2F7372632F6DA2
:103DE00061696E2E6300000053656E646572207415
:103DF00061736B00526563656976657220746173E7
:103E00006B00000049444C4500000000232D302B7E
:103E10002000686C4C0065666745464700303132CB
:103E20003334353637383941424344454600303122
:0F3E300032333435363738396162636465660082
:103E40007856341284000020000000000024F400A2
:103E5000AAAAAAAA000000000000000000000000BA
:103E60000000000000000000000000000000000052
:103E70000000000000000000000000000000000042
:103E80000000000000000000000000000000000032
:103E90000000000000000000000000000000000022
:103EA0000000000000000000000000000000000012
:0C3EB0000000000014000020325476983E
:040000050800019559
:00000001FF
